{
  "_format": "hh-sol-artifact-1",
  "contractName": "CustomNFT",
  "sourceName": "contracts/nft.sol",
  "abi": [
    {
      "inputs": [],
      "stateMutability": "nonpayable",
      "type": "constructor"
    },
    {
      "anonymous": false,
      "inputs": [
        {
          "indexed": true,
          "internalType": "address",
          "name": "owner",
          "type": "address"
        },
        {
          "indexed": true,
          "internalType": "address",
          "name": "approved",
          "type": "address"
        },
        {
          "indexed": true,
          "internalType": "uint256",
          "name": "tokenId",
          "type": "uint256"
        }
      ],
      "name": "Approval",
      "type": "event"
    },
    {
      "anonymous": false,
      "inputs": [
        {
          "indexed": true,
          "internalType": "address",
          "name": "owner",
          "type": "address"
        },
        {
          "indexed": true,
          "internalType": "address",
          "name": "operator",
          "type": "address"
        },
        {
          "indexed": false,
          "internalType": "bool",
          "name": "approved",
          "type": "bool"
        }
      ],
      "name": "ApprovalForAll",
      "type": "event"
    },
    {
      "anonymous": false,
      "inputs": [
        {
          "indexed": true,
          "internalType": "address",
          "name": "from",
          "type": "address"
        },
        {
          "indexed": true,
          "internalType": "address",
          "name": "to",
          "type": "address"
        },
        {
          "indexed": true,
          "internalType": "uint256",
          "name": "tokenId",
          "type": "uint256"
        }
      ],
      "name": "Transfer",
      "type": "event"
    },
    {
      "inputs": [
        {
          "internalType": "address",
          "name": "to",
          "type": "address"
        },
        {
          "internalType": "uint256",
          "name": "tokenId",
          "type": "uint256"
        }
      ],
      "name": "approve",
      "outputs": [],
      "stateMutability": "nonpayable",
      "type": "function"
    },
    {
      "inputs": [
        {
          "internalType": "address",
          "name": "owner",
          "type": "address"
        }
      ],
      "name": "balanceOf",
      "outputs": [
        {
          "internalType": "uint256",
          "name": "",
          "type": "uint256"
        }
      ],
      "stateMutability": "view",
      "type": "function"
    },
    {
      "inputs": [
        {
          "internalType": "uint256",
          "name": "tokenId",
          "type": "uint256"
        }
      ],
      "name": "getApproved",
      "outputs": [
        {
          "internalType": "address",
          "name": "",
          "type": "address"
        }
      ],
      "stateMutability": "view",
      "type": "function"
    },
    {
      "inputs": [
        {
          "internalType": "address",
          "name": "owner",
          "type": "address"
        },
        {
          "internalType": "address",
          "name": "operator",
          "type": "address"
        }
      ],
      "name": "isApprovedForAll",
      "outputs": [
        {
          "internalType": "bool",
          "name": "",
          "type": "bool"
        }
      ],
      "stateMutability": "view",
      "type": "function"
    },
    {
      "inputs": [
        {
          "internalType": "address",
          "name": "_to",
          "type": "address"
        }
      ],
      "name": "mint",
      "outputs": [
        {
          "internalType": "bool",
          "name": "",
          "type": "bool"
        }
      ],
      "stateMutability": "nonpayable",
      "type": "function"
    },
    {
      "inputs": [],
      "name": "name",
      "outputs": [
        {
          "internalType": "string",
          "name": "",
          "type": "string"
        }
      ],
      "stateMutability": "view",
      "type": "function"
    },
    {
      "inputs": [
        {
          "internalType": "uint256",
          "name": "tokenId",
          "type": "uint256"
        }
      ],
      "name": "ownerOf",
      "outputs": [
        {
          "internalType": "address",
          "name": "",
          "type": "address"
        }
      ],
      "stateMutability": "view",
      "type": "function"
    },
    {
      "inputs": [
        {
          "internalType": "address",
          "name": "from",
          "type": "address"
        },
        {
          "internalType": "address",
          "name": "to",
          "type": "address"
        },
        {
          "internalType": "uint256",
          "name": "tokenId",
          "type": "uint256"
        }
      ],
      "name": "safeTransferFrom",
      "outputs": [],
      "stateMutability": "nonpayable",
      "type": "function"
    },
    {
      "inputs": [
        {
          "internalType": "address",
          "name": "from",
          "type": "address"
        },
        {
          "internalType": "address",
          "name": "to",
          "type": "address"
        },
        {
          "internalType": "uint256",
          "name": "tokenId",
          "type": "uint256"
        },
        {
          "internalType": "bytes",
          "name": "_data",
          "type": "bytes"
        }
      ],
      "name": "safeTransferFrom",
      "outputs": [],
      "stateMutability": "nonpayable",
      "type": "function"
    },
    {
      "inputs": [
        {
          "internalType": "address",
          "name": "operator",
          "type": "address"
        },
        {
          "internalType": "bool",
          "name": "approved",
          "type": "bool"
        }
      ],
      "name": "setApprovalForAll",
      "outputs": [],
      "stateMutability": "nonpayable",
      "type": "function"
    },
    {
      "inputs": [
        {
          "internalType": "bytes4",
          "name": "interfaceId",
          "type": "bytes4"
        }
      ],
      "name": "supportsInterface",
      "outputs": [
        {
          "internalType": "bool",
          "name": "",
          "type": "bool"
        }
      ],
      "stateMutability": "view",
      "type": "function"
    },
    {
      "inputs": [],
      "name": "symbol",
      "outputs": [
        {
          "internalType": "string",
          "name": "",
          "type": "string"
        }
      ],
      "stateMutability": "view",
      "type": "function"
    },
    {
      "inputs": [],
      "name": "tokenId",
      "outputs": [
        {
          "internalType": "uint256",
          "name": "",
          "type": "uint256"
        }
      ],
      "stateMutability": "view",
      "type": "function"
    },
    {
      "inputs": [
        {
          "internalType": "uint256",
          "name": "tokenId",
          "type": "uint256"
        }
      ],
      "name": "tokenURI",
      "outputs": [
        {
          "internalType": "string",
          "name": "",
          "type": "string"
        }
      ],
      "stateMutability": "view",
      "type": "function"
    },
    {
      "inputs": [
        {
          "internalType": "address",
          "name": "from",
          "type": "address"
        },
        {
          "internalType": "address",
          "name": "to",
          "type": "address"
        },
        {
          "internalType": "uint256",
          "name": "tokenId",
          "type": "uint256"
        }
      ],
      "name": "transferFrom",
      "outputs": [],
      "stateMutability": "nonpayable",
      "type": "function"
    }
  ],
  "bytecode": "0x608060405260006006553480156200001657600080fd5b506040518060400160405280600981526020017f437573746f6d4e465400000000000000000000000000000000000000000000008152506040518060400160405280600381526020017f434654000000000000000000000000000000000000000000000000000000000081525081600090805190602001906200009b929190620000bd565b508060019080519060200190620000b4929190620000bd565b505050620001d2565b828054620000cb906200016d565b90600052602060002090601f016020900481019282620000ef57600085556200013b565b82601f106200010a57805160ff19168380011785556200013b565b828001600101855582156200013b579182015b828111156200013a5782518255916020019190600101906200011d565b5b5090506200014a91906200014e565b5090565b5b80821115620001695760008160009055506001016200014f565b5090565b600060028204905060018216806200018657607f821691505b602082108114156200019d576200019c620001a3565b5b50919050565b7f4e487b7100000000000000000000000000000000000000000000000000000000600052602260045260246000fd5b61272480620001e26000396000f3fe608060405234801561001057600080fd5b50600436106100f55760003560e01c80636352211e11610097578063a22cb46511610066578063a22cb46514610298578063b88d4fde146102b4578063c87b56dd146102d0578063e985e9c514610300576100f5565b80636352211e146101ea5780636a6278421461021a57806370a082311461024a57806395d89b411461027a576100f5565b8063095ea7b3116100d3578063095ea7b31461017857806317d70f7c1461019457806323b872dd146101b257806342842e0e146101ce576100f5565b806301ffc9a7146100fa57806306fdde031461012a578063081812fc14610148575b600080fd5b610114600480360381019061010f9190611926565b610330565b6040516101219190611ce6565b60405180910390f35b610132610412565b60405161013f9190611d01565b60405180910390f35b610162600480360381019061015d9190611978565b6104a4565b60405161016f9190611c7f565b60405180910390f35b610192600480360381019061018d91906118ea565b610529565b005b61019c610641565b6040516101a99190611ee3565b60405180910390f35b6101cc60048036038101906101c791906117e4565b610647565b005b6101e860048036038101906101e391906117e4565b6106a7565b005b61020460048036038101906101ff9190611978565b6106c7565b6040516102119190611c7f565b60405180910390f35b610234600480360381019061022f919061177f565b610779565b6040516102419190611ce6565b60405180910390f35b610264600480360381019061025f919061177f565b6107aa565b6040516102719190611ee3565b60405180910390f35b610282610862565b60405161028f9190611d01565b60405180910390f35b6102b260048036038101906102ad91906118ae565b6108f4565b005b6102ce60048036038101906102c99190611833565b61090a565b005b6102ea60048036038101906102e59190611978565b61096c565b6040516102f79190611d01565b60405180910390f35b61031a600480360381019061031591906117a8565b610a13565b6040516103279190611ce6565b60405180910390f35b60007f80ac58cd000000000000000000000000000000000000000000000000000000007bffffffffffffffffffffffffffffffffffffffffffffffffffffffff1916827bffffffffffffffffffffffffffffffffffffffffffffffffffffffff191614806103fb57507f5b5e139f000000000000000000000000000000000000000000000000000000007bffffffffffffffffffffffffffffffffffffffffffffffffffffffff1916827bffffffffffffffffffffffffffffffffffffffffffffffffffffffff1916145b8061040b575061040a82610aa7565b5b9050919050565b60606000805461042190612108565b80601f016020809104026020016040519081016040528092919081815260200182805461044d90612108565b801561049a5780601f1061046f5761010080835404028352916020019161049a565b820191906000526020600020905b81548152906001019060200180831161047d57829003601f168201915b5050505050905090565b60006104af82610b11565b6104ee576040517f08c379a00000000000000000000000000000000000000000000000000000000081526004016104e590611e63565b60405180910390fd5b6004600083815260200190815260200160002060009054906101000a900473ffffffffffffffffffffffffffffffffffffffff169050919050565b6000610534826106c7565b90508073ffffffffffffffffffffffffffffffffffffffff168373ffffffffffffffffffffffffffffffffffffffff1614156105a5576040517f08c379a000000000000000000000000000000000000000000000000000000000815260040161059c90611ea3565b60405180910390fd5b8073ffffffffffffffffffffffffffffffffffffffff166105c4610b7d565b73ffffffffffffffffffffffffffffffffffffffff1614806105f357506105f2816105ed610b7d565b610a13565b5b610632576040517f08c379a000000000000000000000000000000000000000000000000000000000815260040161062990611de3565b60405180910390fd5b61063c8383610b85565b505050565b60065481565b610658610652610b7d565b82610c3e565b610697576040517f08c379a000000000000000000000000000000000000000000000000000000000815260040161068e90611ec3565b60405180910390fd5b6106a2838383610d1c565b505050565b6106c28383836040518060200160405280600081525061090a565b505050565b6000806002600084815260200190815260200160002060009054906101000a900473ffffffffffffffffffffffffffffffffffffffff169050600073ffffffffffffffffffffffffffffffffffffffff168173ffffffffffffffffffffffffffffffffffffffff161415610770576040517f08c379a000000000000000000000000000000000000000000000000000000000815260040161076790611e23565b60405180910390fd5b80915050919050565b600060016006600082825461078e9190611f97565b925050819055506107a182600654610f83565b60019050919050565b60008073ffffffffffffffffffffffffffffffffffffffff168273ffffffffffffffffffffffffffffffffffffffff16141561081b576040517f08c379a000000000000000000000000000000000000000000000000000000000815260040161081290611e03565b60405180910390fd5b600360008373ffffffffffffffffffffffffffffffffffffffff1673ffffffffffffffffffffffffffffffffffffffff168152602001908152602001600020549050919050565b60606001805461087190612108565b80601f016020809104026020016040519081016040528092919081815260200182805461089d90612108565b80156108ea5780601f106108bf576101008083540402835291602001916108ea565b820191906000526020600020905b8154815290600101906020018083116108cd57829003601f168201915b5050505050905090565b6109066108ff610b7d565b838361115d565b5050565b61091b610915610b7d565b83610c3e565b61095a576040517f08c379a000000000000000000000000000000000000000000000000000000000815260040161095190611ec3565b60405180910390fd5b610966848484846112ca565b50505050565b606061097782610b11565b6109b6576040517f08c379a00000000000000000000000000000000000000000000000000000000081526004016109ad90611e83565b60405180910390fd5b60006109c0611326565b905060008151116109e05760405180602001604052806000815250610a0b565b806109ea8461133d565b6040516020016109fb929190611c5b565b6040516020818303038152906040525b915050919050565b6000600560008473ffffffffffffffffffffffffffffffffffffffff1673ffffffffffffffffffffffffffffffffffffffff16815260200190815260200160002060008373ffffffffffffffffffffffffffffffffffffffff1673ffffffffffffffffffffffffffffffffffffffff16815260200190815260200160002060009054906101000a900460ff16905092915050565b60007f01ffc9a7000000000000000000000000000000000000000000000000000000007bffffffffffffffffffffffffffffffffffffffffffffffffffffffff1916827bffffffffffffffffffffffffffffffffffffffffffffffffffffffff1916149050919050565b60008073ffffffffffffffffffffffffffffffffffffffff166002600084815260200190815260200160002060009054906101000a900473ffffffffffffffffffffffffffffffffffffffff1673ffffffffffffffffffffffffffffffffffffffff1614159050919050565b600033905090565b816004600083815260200190815260200160002060006101000a81548173ffffffffffffffffffffffffffffffffffffffff021916908373ffffffffffffffffffffffffffffffffffffffff160217905550808273ffffffffffffffffffffffffffffffffffffffff16610bf8836106c7565b73ffffffffffffffffffffffffffffffffffffffff167f8c5be1e5ebec7d5bd14f71427d1e84f3dd0314c0f7b2291e5b200ac8c7c3b92560405160405180910390a45050565b6000610c4982610b11565b610c88576040517f08c379a0000000000000000000000000000000000000000000000000000000008152600401610c7f90611dc3565b60405180910390fd5b6000610c93836106c7565b90508073ffffffffffffffffffffffffffffffffffffffff168473ffffffffffffffffffffffffffffffffffffffff161480610d0257508373ffffffffffffffffffffffffffffffffffffffff16610cea846104a4565b73ffffffffffffffffffffffffffffffffffffffff16145b80610d135750610d128185610a13565b5b91505092915050565b8273ffffffffffffffffffffffffffffffffffffffff16610d3c826106c7565b73ffffffffffffffffffffffffffffffffffffffff1614610d92576040517f08c379a0000000000000000000000000000000000000000000000000000000008152600401610d8990611d43565b60405180910390fd5b600073ffffffffffffffffffffffffffffffffffffffff168273ffffffffffffffffffffffffffffffffffffffff161415610e02576040517f08c379a0000000000000000000000000000000000000000000000000000000008152600401610df990611d83565b60405180910390fd5b610e0d8383836114ea565b610e18600082610b85565b6001600360008573ffffffffffffffffffffffffffffffffffffffff1673ffffffffffffffffffffffffffffffffffffffff1681526020019081526020016000206000828254610e68919061201e565b925050819055506001600360008473ffffffffffffffffffffffffffffffffffffffff1673ffffffffffffffffffffffffffffffffffffffff1681526020019081526020016000206000828254610ebf9190611f97565b92505081905550816002600083815260200190815260200160002060006101000a81548173ffffffffffffffffffffffffffffffffffffffff021916908373ffffffffffffffffffffffffffffffffffffffff160217905550808273ffffffffffffffffffffffffffffffffffffffff168473ffffffffffffffffffffffffffffffffffffffff167fddf252ad1be2c89b69c2b068fc378daa952ba7f163c4a11628f55a4df523b3ef60405160405180910390a4610f7e8383836114ef565b505050565b600073ffffffffffffffffffffffffffffffffffffffff168273ffffffffffffffffffffffffffffffffffffffff161415610ff3576040517f08c379a0000000000000000000000000000000000000000000000000000000008152600401610fea90611e43565b60405180910390fd5b610ffc81610b11565b1561103c576040517f08c379a000000000000000000000000000000000000000000000000000000000815260040161103390611d63565b60405180910390fd5b611048600083836114ea565b6001600360008473ffffffffffffffffffffffffffffffffffffffff1673ffffffffffffffffffffffffffffffffffffffff16815260200190815260200160002060008282546110989190611f97565b92505081905550816002600083815260200190815260200160002060006101000a81548173ffffffffffffffffffffffffffffffffffffffff021916908373ffffffffffffffffffffffffffffffffffffffff160217905550808273ffffffffffffffffffffffffffffffffffffffff16600073ffffffffffffffffffffffffffffffffffffffff167fddf252ad1be2c89b69c2b068fc378daa952ba7f163c4a11628f55a4df523b3ef60405160405180910390a4611159600083836114ef565b5050565b8173ffffffffffffffffffffffffffffffffffffffff168373ffffffffffffffffffffffffffffffffffffffff1614156111cc576040517f08c379a00000000000000000000000000000000000000000000000000000000081526004016111c390611da3565b60405180910390fd5b80600560008573ffffffffffffffffffffffffffffffffffffffff1673ffffffffffffffffffffffffffffffffffffffff16815260200190815260200160002060008473ffffffffffffffffffffffffffffffffffffffff1673ffffffffffffffffffffffffffffffffffffffff16815260200190815260200160002060006101000a81548160ff0219169083151502179055508173ffffffffffffffffffffffffffffffffffffffff168373ffffffffffffffffffffffffffffffffffffffff167f17307eab39ab6107e8899845ad3d59bd9653f200f220920489ca2b5937696c31836040516112bd9190611ce6565b60405180910390a3505050565b6112d5848484610d1c565b6112e1848484846114f4565b611320576040517f08c379a000000000000000000000000000000000000000000000000000000000815260040161131790611d23565b60405180910390fd5b50505050565b606060405180602001604052806000815250905090565b60606000821415611385576040518060400160405280600181526020017f300000000000000000000000000000000000000000000000000000000000000081525090506114e5565b600082905060005b600082146113b75780806113a09061216b565b915050600a826113b09190611fed565b915061138d565b60008167ffffffffffffffff8111156113f9577f4e487b7100000000000000000000000000000000000000000000000000000000600052604160045260246000fd5b6040519080825280601f01601f19166020018201604052801561142b5781602001600182028036833780820191505090505b5090505b600085146114de57600182611444919061201e565b9150600a8561145391906121b4565b603061145f9190611f97565b60f81b81838151811061149b577f4e487b7100000000000000000000000000000000000000000000000000000000600052603260045260246000fd5b60200101907effffffffffffffffffffffffffffffffffffffffffffffffffffffffffffff1916908160001a905350600a856114d79190611fed565b945061142f565b8093505050505b919050565b505050565b505050565b60006115158473ffffffffffffffffffffffffffffffffffffffff1661168b565b1561167e578373ffffffffffffffffffffffffffffffffffffffff1663150b7a0261153e610b7d565b8786866040518563ffffffff1660e01b81526004016115609493929190611c9a565b602060405180830381600087803b15801561157a57600080fd5b505af19250505080156115ab57506040513d601f19601f820116820180604052508101906115a8919061194f565b60015b61162e573d80600081146115db576040519150601f19603f3d011682016040523d82523d6000602084013e6115e0565b606091505b50600081511415611626576040517f08c379a000000000000000000000000000000000000000000000000000000000815260040161161d90611d23565b60405180910390fd5b805181602001fd5b63150b7a0260e01b7bffffffffffffffffffffffffffffffffffffffffffffffffffffffff1916817bffffffffffffffffffffffffffffffffffffffffffffffffffffffff191614915050611683565b600190505b949350505050565b6000808273ffffffffffffffffffffffffffffffffffffffff163b119050919050565b60006116c16116bc84611f23565b611efe565b9050828152602081018484840111156116d957600080fd5b6116e48482856120c6565b509392505050565b6000813590506116fb81612692565b92915050565b600081359050611710816126a9565b92915050565b600081359050611725816126c0565b92915050565b60008151905061173a816126c0565b92915050565b600082601f83011261175157600080fd5b81356117618482602086016116ae565b91505092915050565b600081359050611779816126d7565b92915050565b60006020828403121561179157600080fd5b600061179f848285016116ec565b91505092915050565b600080604083850312156117bb57600080fd5b60006117c9858286016116ec565b92505060206117da858286016116ec565b9150509250929050565b6000806000606084860312156117f957600080fd5b6000611807868287016116ec565b9350506020611818868287016116ec565b92505060406118298682870161176a565b9150509250925092565b6000806000806080858703121561184957600080fd5b6000611857878288016116ec565b9450506020611868878288016116ec565b93505060406118798782880161176a565b925050606085013567ffffffffffffffff81111561189657600080fd5b6118a287828801611740565b91505092959194509250565b600080604083850312156118c157600080fd5b60006118cf858286016116ec565b92505060206118e085828601611701565b9150509250929050565b600080604083850312156118fd57600080fd5b600061190b858286016116ec565b925050602061191c8582860161176a565b9150509250929050565b60006020828403121561193857600080fd5b600061194684828501611716565b91505092915050565b60006020828403121561196157600080fd5b600061196f8482850161172b565b91505092915050565b60006020828403121561198a57600080fd5b60006119988482850161176a565b91505092915050565b6119aa81612052565b82525050565b6119b981612064565b82525050565b60006119ca82611f54565b6119d48185611f6a565b93506119e48185602086016120d5565b6119ed816122a1565b840191505092915050565b6000611a0382611f5f565b611a0d8185611f7b565b9350611a1d8185602086016120d5565b611a26816122a1565b840191505092915050565b6000611a3c82611f5f565b611a468185611f8c565b9350611a568185602086016120d5565b80840191505092915050565b6000611a6f603283611f7b565b9150611a7a826122b2565b604082019050919050565b6000611a92602583611f7b565b9150611a9d82612301565b604082019050919050565b6000611ab5601c83611f7b565b9150611ac082612350565b602082019050919050565b6000611ad8602483611f7b565b9150611ae382612379565b604082019050919050565b6000611afb601983611f7b565b9150611b06826123c8565b602082019050919050565b6000611b1e602c83611f7b565b9150611b29826123f1565b604082019050919050565b6000611b41603883611f7b565b9150611b4c82612440565b604082019050919050565b6000611b64602a83611f7b565b9150611b6f8261248f565b604082019050919050565b6000611b87602983611f7b565b9150611b92826124de565b604082019050919050565b6000611baa602083611f7b565b9150611bb58261252d565b602082019050919050565b6000611bcd602c83611f7b565b9150611bd882612556565b604082019050919050565b6000611bf0602f83611f7b565b9150611bfb826125a5565b604082019050919050565b6000611c13602183611f7b565b9150611c1e826125f4565b604082019050919050565b6000611c36603183611f7b565b9150611c4182612643565b604082019050919050565b611c55816120bc565b82525050565b6000611c678285611a31565b9150611c738284611a31565b91508190509392505050565b6000602082019050611c9460008301846119a1565b92915050565b6000608082019050611caf60008301876119a1565b611cbc60208301866119a1565b611cc96040830185611c4c565b8181036060830152611cdb81846119bf565b905095945050505050565b6000602082019050611cfb60008301846119b0565b92915050565b60006020820190508181036000830152611d1b81846119f8565b905092915050565b60006020820190508181036000830152611d3c81611a62565b9050919050565b60006020820190508181036000830152611d5c81611a85565b9050919050565b60006020820190508181036000830152611d7c81611aa8565b9050919050565b60006020820190508181036000830152611d9c81611acb565b9050919050565b60006020820190508181036000830152611dbc81611aee565b9050919050565b60006020820190508181036000830152611ddc81611b11565b9050919050565b60006020820190508181036000830152611dfc81611b34565b9050919050565b60006020820190508181036000830152611e1c81611b57565b9050919050565b60006020820190508181036000830152611e3c81611b7a565b9050919050565b60006020820190508181036000830152611e5c81611b9d565b9050919050565b60006020820190508181036000830152611e7c81611bc0565b9050919050565b60006020820190508181036000830152611e9c81611be3565b9050919050565b60006020820190508181036000830152611ebc81611c06565b9050919050565b60006020820190508181036000830152611edc81611c29565b9050919050565b6000602082019050611ef86000830184611c4c565b92915050565b6000611f08611f19565b9050611f14828261213a565b919050565b6000604051905090565b600067ffffffffffffffff821115611f3e57611f3d612272565b5b611f47826122a1565b9050602081019050919050565b600081519050919050565b600081519050919050565b600082825260208201905092915050565b600082825260208201905092915050565b600081905092915050565b6000611fa2826120bc565b9150611fad836120bc565b9250827fffffffffffffffffffffffffffffffffffffffffffffffffffffffffffffffff03821115611fe257611fe16121e5565b5b828201905092915050565b6000611ff8826120bc565b9150612003836120bc565b92508261201357612012612214565b5b828204905092915050565b6000612029826120bc565b9150612034836120bc565b925082821015612047576120466121e5565b5b828203905092915050565b600061205d8261209c565b9050919050565b60008115159050919050565b60007fffffffff0000000000000000000000000000000000000000000000000000000082169050919050565b600073ffffffffffffffffffffffffffffffffffffffff82169050919050565b6000819050919050565b82818337600083830152505050565b60005b838110156120f35780820151818401526020810190506120d8565b83811115612102576000848401525b50505050565b6000600282049050600182168061212057607f821691505b6020821081141561213457612133612243565b5b50919050565b612143826122a1565b810181811067ffffffffffffffff8211171561216257612161612272565b5b80604052505050565b6000612176826120bc565b91507fffffffffffffffffffffffffffffffffffffffffffffffffffffffffffffffff8214156121a9576121a86121e5565b5b600182019050919050565b60006121bf826120bc565b91506121ca836120bc565b9250826121da576121d9612214565b5b828206905092915050565b7f4e487b7100000000000000000000000000000000000000000000000000000000600052601160045260246000fd5b7f4e487b7100000000000000000000000000000000000000000000000000000000600052601260045260246000fd5b7f4e487b7100000000000000000000000000000000000000000000000000000000600052602260045260246000fd5b7f4e487b7100000000000000000000000000000000000000000000000000000000600052604160045260246000fd5b6000601f19601f8301169050919050565b7f4552433732313a207472616e7366657220746f206e6f6e20455243373231526560008201527f63656976657220696d706c656d656e7465720000000000000000000000000000602082015250565b7f4552433732313a207472616e736665722066726f6d20696e636f72726563742060008201527f6f776e6572000000000000000000000000000000000000000000000000000000602082015250565b7f4552433732313a20746f6b656e20616c7265616479206d696e74656400000000600082015250565b7f4552433732313a207472616e7366657220746f20746865207a65726f2061646460008201527f7265737300000000000000000000000000000000000000000000000000000000602082015250565b7f4552433732313a20617070726f766520746f2063616c6c657200000000000000600082015250565b7f4552433732313a206f70657261746f7220717565727920666f72206e6f6e657860008201527f697374656e7420746f6b656e0000000000000000000000000000000000000000602082015250565b7f4552433732313a20617070726f76652063616c6c6572206973206e6f74206f7760008201527f6e6572206e6f7220617070726f76656420666f7220616c6c0000000000000000602082015250565b7f4552433732313a2062616c616e636520717565727920666f7220746865207a6560008201527f726f206164647265737300000000000000000000000000000000000000000000602082015250565b7f4552433732313a206f776e657220717565727920666f72206e6f6e657869737460008201527f656e7420746f6b656e0000000000000000000000000000000000000000000000602082015250565b7f4552433732313a206d696e7420746f20746865207a65726f2061646472657373600082015250565b7f4552433732313a20617070726f76656420717565727920666f72206e6f6e657860008201527f697374656e7420746f6b656e0000000000000000000000000000000000000000602082015250565b7f4552433732314d657461646174613a2055524920717565727920666f72206e6f60008201527f6e6578697374656e7420746f6b656e0000000000000000000000000000000000602082015250565b7f4552433732313a20617070726f76616c20746f2063757272656e74206f776e6560008201527f7200000000000000000000000000000000000000000000000000000000000000602082015250565b7f4552433732313a207472616e736665722063616c6c6572206973206e6f74206f60008201527f776e6572206e6f7220617070726f766564000000000000000000000000000000602082015250565b61269b81612052565b81146126a657600080fd5b50565b6126b281612064565b81146126bd57600080fd5b50565b6126c981612070565b81146126d457600080fd5b50565b6126e0816120bc565b81146126eb57600080fd5b5056fea2646970667358221220ccdc87e915ccb34c86b9ae5e7f26983a1a807b2590e1f8300162f37cf49ab10864736f6c63430008010033",
  "linkReferences": {},
  "deployedLinkReferences": {}
}